:020000040800F2
:100000004847002031020008730D00089F0C0008CB
:10001000710D00080D0A0008F5120008000000002C
:10002000000000000000000000000000990100082E
:10003000430B000800000000DD0100089D0F0008D0
:100040004B0200084B0200084B0200084B0200085C
:100050004B0200084B0200084B0200084B0200084C
:100060004B0200084B0200084B0200084B0200083C
:100070004B0200084B0200084B0200084B0200082C
:100080004B0200084B0200084B0200084B0200081C
:100090004B0200084B0200084B0200084B0200080C
:1000A0004B0200084B0200084B0200084B020008FC
:1000B0004B0200084B0200084B0200084B020008EC
:1000C0004B0200084B0200084B0200084B020008DC
:1000D0004B0200084B0200084B02000859110008AF
:1000E0004B0200084B0200084B02000800F002F827
:1000F00000F042F80AA090E8000C82448344AAF180
:100100000107DA4501D100F037F8AFF2090EBAE87D
:100110000F0013F0010F18BFFB1A43F0010318473B
:100120000036000020360000103A24BF78C878C19D
:10013000FAD8520724BF30C830C144BF04680C60ED
:10014000704700000023002400250026103A28BF35
:1001500078C1FBD8520728BF30C148BF0B60704739
:10016000642900F0F180732900F0FE8100207047BF
:100170001FB51FBD10B510BD00F08BFA1146FFF77B
:10018000F7FF01F051F900F0A9FA03B4FFF7F2FF0D
:1001900003BC01F0B0F80000224B19680868B0E811
:1001A000F00F80F30988BFF36F8F4FF0000080F3EA
:1001B00011884EF00D0E70470000000006480068E0
:1001C000006880F3088862B661B6BFF34F8FBFF353
:1001D0006F8F00DF00BF00BF08ED00E0EFF3098084
:1001E000BFF36F8F0F4B1A6820E9F00F106008B54E
:1001F0004FF0500080F31188BFF34F8FBFF36F8F24
:1002000002F00AFA4FF0000080F31188BDE80840C0
:1002100019680868B0E8F00F80F30988BFF36F8FA2
:10022000704700BF5C000020EFF3058070470000BE
:100230000948804709480047FEE7FEE7FEE7FEE77A
:10024000FEE7FEE7FEE7FEE7FEE7FEE704480549B6
:10025000054A064B70470000B10F0008ED0000088A
:1002600048410020484700204843002048430020E0
:10027000704700000FB4044910B503AA029800F0BB
:1002800077F910BC5DF814FB440000202DE9F04123
:100290000E460446002020622046E168884730B3BD
:1002A000252805D0D4E901219047206A401CF2E7B7
:1002B000E168204600278847050018D0A5F14100D5
:1002C000192802D820354FF40067324629462046C7
:1002D0002760FFF745FF40B1012804D0F61D26F046
:1002E00007060836D8E7361DD6E72846DAE7206A3B
:1002F000BDE8F08170B50C460546012A05D0287886
:10030000800600D5EA69002302E0012305E05B1CBA
:10031000934202D2E05C0028F9D1A869E618C01A1D
:10032000A861286A184428622846AFF3008004E0D8
:10033000D5E9012114F8010B9047B442F8D32846BF
:10034000AFF3008070BD00002DE9F04106460024A7
:1003500010687529314616A510D0AFF3008000282B
:1003600002DA404213A507E031688A0701D512A5D9
:1003700002E0490704D511A5012401E0AFF3008094
:1003800000210A2206F1240709E0B0FBF2FCB0FBD1
:10039000F2F302FB1C00303078541846491C002848
:1003A000F3D123462A463046BDE8F04100F059B863
:1003B000000000002D0000002B00000020000000C5
:1003C000032A40F2308010F0030C00F0158011F881
:1003D000013BBCF1020F624498BF11F801CB00F859
:1003E000013B38BF11F8013BA2F1040298BF00F8AD
:1003F00001CB38BF00F8013B11F0030300F0CA80C5
:10040000083AC0F0088051F8043B083A51F804CB90
:10041000A0E80810F5E7121D5CBF51F8043B40F856
:10042000043BAFF30080D20724BF11F8013B11F861
:1004300001CB48BF11F8012B24BF00F8013B00F8A5
:1004400001CB48BF00F8012B704702F0FF0343EADD
:10045000032242EA024200F0D1B870477047704769
:1004600070472DE9F0470D4699469246044600F143
:1004700024080168880604D5E06921F01001216094
:1004800000E00120A84201DD471B00E00027A16930
:100490007A1902EB0900081AA0612078C00602D47C
:1004A0002046AFF30080002608E0D4E901211AF8C5
:1004B00006009047206A401C761C20624E45F4DB03
:1004C0002078C0060AD52046AFF3008006E0D4E9C4
:1004D000012130209047206A401C2062381EA7F17D
:1004E0000107F4DC07E0D4E9012118F80500904782
:1004F000206A401C2062281EA5F10105F3DC20467D
:10050000AFF300802078000602D50220BDE8F08716
:100510000120FBE701694A1C02610878704700B5B9
:100520008FB0CDE901310021059105497944CDE92C
:10053000031011466846FFF7A9FE0FB000BD00008A
:10054000E5FFFFFF10B5436913B1AFF3008001E091
:10055000FFF7D0FE012010BD127800F124010A70CF
:1005600000224A700122EDE711684FF0FF32E9E7FF
:10057000074B70B50D467B44FFF7D1FF0446284674
:1005800000F05CF810B14FF0FF3070BD204670BD38
:10059000470E000010B5203AC0F00B80B1E81850AB
:1005A000203AA0E81850B1E81850A0E81850BFF45D
:1005B000F5AF5FEA027C24BFB1E81850A0E81850FC
:1005C00044BF18C918C0BDE810405FEA827C24BF50
:1005D00051F8043B40F8043B08BF7047D20728BFDE
:1005E00031F8023B48BF11F8012B28BF20F8023B2D
:1005F00048BF00F8012B70474FF000020429C0F0FB
:10060000128010F0030C00F01F80CCF1040CBCF140
:10061000020F18BF00F8012BA8BF20F8022BA1EB96
:100620000C0100F011B85FEAC17C24BF00F8012B77
:1006300000F8012B48BF00F8012B7047007B00F049
:10064000800070474FF0000200B51346944696466E
:10065000203922BFA0E80C50A0E80C50B1F12001D5
:10066000BFF4F7AF090728BFA0E80C5048BF0CC083
:100670005DF804EB890028BF40F8042B08BF7047E1
:1006800048BF20F8022B11F0804F18BF00F8012B53
:100690007047754600F02CF8AE4605006946534693
:1006A00020F00700854618B020B5FFF7CFFDBDE864
:1006B00020404FF000064FF000074FF000084FF0C9
:1006C000000B21F00701AC46ACE8C009ACE8C0095A
:1006D000ACE8C009ACE8C0098D46704710B50446C7
:1006E000AFF300802046BDE81040FFF74EBD00008C
:1006F00000487047E44000200029816802D041F0A2
:10070000010101E021F00101816070470029816849
:1007100002D041F4807101E021F480718160704762
:10072000014600208968490700D50120704701462D
:1007300000208968090700D50120704710B542687C
:100740000E4B0C791A400B6842EA042213434360B3
:1007500082680B4B1A40D1E9024323434C7942EAA9
:10076000440213438360C26A097C22F47002491E6A
:10077000C9B242EA0151C16210BD0000FFFEF0FFA4
:10078000FDF7F1FF70B5072609290AD9C568A1F15F
:100790000A0404EB4404A640B543A3401D43C560CE
:1007A00007E0056901EB4104A640B543A3401D43A2
:1007B00005611F23072A09D2446B521E02EB8202F5
:1007C00093409C4391400C43446370BD0D2A09D271
:1007D000046BD21F02EB820293409C4391400C4376
:1007E000046370BDC46A0D3A02EB820293409C43DD
:1007F00091400C43C46270BD816841F00801816082
:1008000070470029816802D041F4A00101E021F481
:10081000A00181607047816841F0040181607047E8
:100820000A4810B5008802F063FE4FF06632084BAC
:1008300002F072FE0022074B02F06EFE0022064B11
:1008400002F0FEFCBDE8104002F0C8BC38000020F9
:1008500066660A400000264000FEAF402DE9F041E8
:100860008846074600244FF400750A4E0EE02946DC
:10087000304600F012FA404600F08CFD2946304622
:1008800000F009FA404600F085FD641CBC42EEDB36
:10089000BDE8F0810008014038B50121042000F0D6
:1008A000C7FA4FF40074ADF8004010208DF8030033
:1008B0000320064D8DF802006946284600F096F99F
:1008C0002146284600F0E7F938BD00000008014045
:1008D000084810B5408802F00BFE4FF06632064B18
:1008E00002F01AFE0022054B02F0AAFCBDE81040FF
:1008F00002F074BC3800002066660A4000FEAF407B
:10090000F0B591B001214FF4037000F091FA01218C
:10091000084600F075FA0125ADF8405000248DF826
:10092000434010A9344800F061F90226ADF8406058
:100930008DF8434010A9314800F058F9304F38463F
:1009400000F070F82F4800902F4801A981E831008D
:100950008020CDE9044040000690800007902020D0
:1009600008900002CDE909046946384600F0CCF849
:100970000121384600F04BF88DF830500B948DF87B
:1009800031504FF46020CDE90D041E4C8DF83C60D1
:100990004C3C0BA92046FFF7D1FE4FF4404000F03D
:1009A00025FA0523012200212046FFF7EBFE05234F
:1009B000022209212046FFF7E5FE01212046FFF72C
:1009C000A5FE01212046FFF797FE2046FFF714FF02
:1009D0002046FFF7ACFE0028FAD12046FFF71BFFA8
:1009E0002046FFF79DFE0028FAD101212046FFF79F
:1009F00008FF11B0F0BD000000080140000C0140EC
:100A0000080002404C24014038000020FEE7002985
:100A1000016802D041F0010102E04FF6FE72114080
:100A20000160704701684FF6FE72114001600021BD
:100A3000016041608160C1603149314A08399042AA
:100A400003D1486840F00F0006E02D4A143290426E
:100A500004D1486840F0F00048607047284A2832C6
:100A6000904203D1486840F47060F5E7244A3C3274
:100A7000904203D1486840F47040EDE7204A50327C
:100A8000904203D1486840F47020E5E71C4A643284
:100A9000904203D1486840F47000DDE7184A78328C
:100AA000904203D1486840F07060D5E7154A111FA5
:100AB000904203D1086840F00F0006E0114A14325A
:100AC000904204D1086840F0F000086070470D4A79
:100AD0002832904203D1086840F47060F5E7094A73
:100AE0003C32904203D1086840F47040EDE7054A7B
:100AF00050329042EAD1086840F47020E5E70000E7
:100B0000080002400804024030B5026847F6F0735E
:100B10009A430C6A8B682343D1E904452C43234351
:100B20008C692343CC6923434C6A23438C6A234357
:100B300013430360CA6842600A6882604968C16002
:100B400030BD704730B50D46044689B00121042000
:100B500000F06EF94FF48072ADF81C2018218DF86A
:100B60001F1003208DF81E0007A9194800F03EF859
:100B70000121C80200F05CF9ADF80440ADF8005066
:100B80000024144DADF80640ADF802408DF8084041
:100B90006946284600F092FA6020ADF80C0001206A
:100BA000ADF80E00ADF81240ADF8144003A9284688
:100BB00000F03CFA0821284600F078FA0121284686
:100BC00000F01EFA0121284600F024FA09B030BDD9
:100BD00000080140002C0140002800DA404281B2A8
:100BE000014800F069BA0000002C0140F0B5CC7853
:100BF000002204F00F03E40601D58C7823430C781F
:100C00004FF00F0C14F0FF0F4FF0010E1BD00568D2
:100C10000E880EFA02F42640A64210D196000CFA75
:100C200006F725EA070703FA06F5CE783D43282E96
:100C300002D0482E02D002E0446100E00461521C60
:100C4000082AE5D305600A88FF2A1CD944680022D7
:100C500002F108060EFA06F50E882E40AE420ED1BD
:100C600096000CFA06F7BC4303FA06F7CE783C432D
:100C7000282E00D14561CE78482E00D10561521C46
:100C8000082AE5D34460F0BD0246002092680A427B
:100C900000D0012070474161704701617047FEE755
:100CA00008B50121082000F0C3F8C020ADF800000D
:100CB00048208DF8030069460148FFF797FF08BDFB
:100CC000000C014070B51B4C1B4D012608B126706D
:100CD00001E0207848B108212846FFF7D5FF58B138
:100CE00004212846FFF7D0FF30B108212846FFF73E
:100CF000CBFF012814D01AE00A2000F04BFB0020A3
:100D0000207008212846FFF7BFFF28B1042128469C
:100D1000FFF7BAFF10B10AE0012070BD022070BDDC
:100D200004212846FFF7B0FF012800D126700020DB
:100D300070BD00003C000020000C014038B50121CE
:100D4000042000F075F83820ADF8000010208DF870
:100D500003000320054C8DF8020069462046FFF78A
:100D600045FF38212046FFF798FF38BD00080140B5
:100D7000FEE7704730B50F23C27801780125F2B144
:100D8000144A126801F1E02102F4E062C2F5E06267
:100D9000120AC2F10404D3404278A24084781C4075
:100DA0001443220181F80024007800F01F018D40D7
:100DB0004009800000F1E020C0F8005130BD01F092
:100DC0001F0085404809800000F1E020C0F88051F4
:100DD00030BD00000CED00E0024908430249086004
:100DE000704700000000FA050CED00E0034A51686E
:100DF00021F440410143516070470000001002405F
:100E0000044A0029516901D0014300E08143516146
:100E10007047000000100240044A0029D16901D047
:100E2000014300E08143D16170470000001002409F
:100E3000044A0029916901D0014300E08143916196
:100E4000704700000010024030B5204A5168204B26
:100E500011F00C0103D0042901D0082901D003604E
:100E600012E05168536801F470114FF0020413F45A
:100E7000803F04EB914102D053689B0301D5154B91
:100E800000E0134B5943016051680F2303EA11112D
:100E9000114B5C5C0168E14041605468072505EA3C
:100EA00014241C5D21FA04F48460546805EAD424F7
:100EB0001B5DD940C1605268032303EA9232064B9E
:100EC0001B1F9A5CB1FBF2F1016130BD00100240C2
:100ED00000127A0000093D004C0000200CB50022F1
:100EE000264800920192016841F4803101604FF47C
:100EF000A063016801F4003101910099491C00913F
:100F0000019911B900999942F3D10168890333D548
:100F1000012101911A490A6842F010020A600A6828
:100F200022F003020A600A6842F002020A60416885
:100F3000416041684160416841F4806141604168BD
:100F400021F47C114160416841F4E811416001687D
:100F500041F08071016001688901FCD5416821F090
:100F600003014160416841F0020141604168C1F301
:100F700081010229FAD10CBD01920CBD0010024082
:100F8000002002404FF0E0210428086903D020F03F
:100F900004000861704740F00400FAE710B501F062
:100FA000C1FE012803D0BDE8104001F0AFBB10BD69
:100FB0000F4810B5016841F00101016041680D4A18
:100FC0001140416001680C4A11400160016821F440
:100FD00080210160416821F4FE0141604FF41F014E
:100FE0008160FFF77BFF05494FF00060086010BD8E
:100FF000001002400000FFF8FFFFF6FE08ED00E0E1
:101000000029018802D041F0010101E021F0010135
:1010100001807047002930F8441F02D041F400419C
:1010200001E0C1F30E0101807047000030B5028C71
:1010300022F001020284028C8388048B22F00202D7
:1010400024F073050C882C430D8915434A882A43E4
:10105000114DA8420BD0114DA84208D0104DA84206
:1010600005D0104DA84202D00F4DA8420DD122F05C
:1010700008054A8923F440732A4322F004058A882C
:101080002A438D891D43CB892B4383800483C988E0
:101090008186028430BD0000002C014000340140F4
:1010A000004001400044014000480140028B22F012
:1010B00008020A43028370478186704730B5028870
:1010C0001B4C1C4DA0420DD0A8420BD0B0F1804F5C
:1010D00008D0194B984205D0184B984202D0184BB3
:1010E000984203D122F070034A881A43154B984264
:1010F00006D0154B984203D022F44073CA881A4395
:1011000002808A8882850A880285A0420AD0A84285
:1011100008D00E4A904205D00D4A904202D00D4AA6
:10112000904201D1097A01860121818230BD0000FF
:10113000002C014000340140000400400008004041
:10114000000C00400010004000140040004001402E
:10115000004401400048014070B5154C40F2255153
:10116000204600F035F800280ED0204600F0BEF8EA
:10117000104AC1B21088030406D444044FF000039F
:1011800006D50A2901D0138070BD40F400400DE05F
:101190000D2909D0C0F30D04074D401C80B229551C
:1011A0001080C728EFD870BD40F48040108070BD1B
:1011B0000048004042000020D00000200029818922
:1011C00002D041F4005101E021F4005181817047C7
:1011D00070B501F01F0501260024C1F3421306FA81
:1011E00005F2012B0FD0022B0FD0838A4FEA112179
:1011F0000088134206FA01F600EA060001D000B1A9
:101200000124204670BD8389F0E7038AEEE710B51C
:10121000C1F3421301F01F040121A140012B07D0AB
:10122000022B07D01430002A026805D00A4304E0DC
:101230000C30F8E71030F6E78A43026010BD00007A
:1012400030B50446008A85B00D464CF6FF71084063
:10125000E98801432182A0894EF6F3110840A9884C
:101260002A8911436A8902431143A181A08A4FF65A
:10127000FF410840A9890143A1826846FFF7E4FDC8
:101280001948844201D1039800E00298A189090419
:1012900000EBC00101EB0010296801D5490000E016
:1012A0008900B0FBF1F06422B0FBF2F109010B09F7
:1012B0006FF018056B4300EB8300A3891D044FF00A
:1012C000320306D503EBC000B0FBF2F000F00700DC
:1012D00005E003EB0010B0FBF2F000F00F00084354
:1012E000208105B030BD0000003801408088C0F387
:1012F00008007047FEE77047064CFFF7E9FAE06127
:101300000A2000F047F8FFF78BFA2062012000F076
:10131000D1FFF2E70000002010B50420FFF732FEF5
:101320000C480D490D4A0068B0FBF1F3B0FBF1F138
:101330004FF47A7041431370012050804FF0E02049
:10134000026942F0020202614161016941F001015A
:10135000016110BD2400002040420F003E0000202B
:1013600070B54FF0E02500216C69094AAB6912782D
:101370005043AA699A42FCD002D2A3EB020302E0D6
:10138000A4EB02063344194413468142F1D370BDE5
:101390003E00002070B5054600244FF47A7603E045
:1013A0003046FFF7DDFF641CAC42F9D370BD40F25C
:1013B000F6542046FFF710FC012000F07BFFF8E711
:1013C00004490A885206FCD5024AC1B2121D118096
:1013D000704700000038014001250326094C022710
:1013E0000020FFF76FFC2060012802D0022806D001
:1013F00000E065606760012000F05CFFF0E7666078
:10140000F9E70000000000200024064D0126C5F881
:101410009041C82000F04EFFC5F89061C82000F050
:1014200049FFF4E7000021421CB54FF44070FFF77C
:10143000D3FCFFF771FF4FF4E13000F05DFDFFF7E3
:101440007DFCFFF729FA64210220FFF707FAFFF776
:1014500057FA472144F61F60FFF774FBFFF720FCA3
:1014600006490120CDE900010023802204A107489C
:1014700001F02CFC01F07EF800201CBD08000020CB
:1014800073746172745F7461736B0000451E0008B1
:101490002DE9F041184E0F460446F5683068001DEE
:1014A00000F07EFD38B9306890F82C10012088409B
:1014B000316981433161601C07D137B13168BDE8C2
:1014C000F0410E48091D00F0A3BD30682C44AC4229
:1014D0004460316805D2B06BBDE8F041091D00F0F1
:1014E0007FBD706B091D00F07BFDB06A844200D2A5
:1014F000B462BDE8F08100005C000020A804002078
:101500002DE9F041054600F08FFD2D4EB068401CDE
:10151000B06030682B4F10B1706930B32BE035608C
:10152000B068012827D1002404EB840007EB800079
:1015300000F048FD641C202CF6D3234800F042FD47
:101540002148143000F03EFD1F48283000F03AFDDD
:101550001D483C3000F036FD1B48503000F032FD95
:10156000194870631430B06305E03068E96AC06AF6
:10157000884200D83560706A0121401C706268643E
:10158000E86A326981401143316100EB800007EB6A
:101590008000291D00F03CFD00F082FD70690028EC
:1015A0000CD03068E96AC06A884207D207494FF018
:1015B00080500860BFF34F8FBFF36F8FBDE8F0819D
:1015C0005C000020D80100205804002004ED00E059
:1015D00010B500F029FD0E4C2068A0B90D4800F0B0
:1015E000F1FC0C48143000F0EDFC0A48E0601430C7
:1015F000206100221021052001F09EF8206010B12A
:1016000005A100F023FEBDE8104000F049BD000038
:1016100098000020BC040020546D725100000000AE
:1016200070B5124E124D1CE000F0EEFF306820B194
:10163000002401F0A5FCA4B901E00124F9E700F0C1
:10164000F3FCF068C468201D00F0AAFCA868401EE6
:10165000A8606868401E686000F022FD204600F027
:1016600052F868680028DFD170BD000094040020A3
:101670005C00002030B4026C0B46002A0BD0C1681D
:101680001144C1604468A14201D30168C16030BC0B
:101690001846FEF795BE30BC70472DE9F041856BCA
:1016A000174604460026026C82B1C7B1E068FEF717
:1016B00087FEE168206C091AE1602268914202D23B
:1016C0006168081AE060022F16D017E02068A8B9F8
:1016D000606801F0AFFB0646002060600EE0A06885
:1016E000FEF76EFE216CA0680844A0606168884225
:1016F00004D32068A06001E005B16D1E6D1CA563D8
:101700003046BDE8F08110B50446006B00F0FAFCED
:101710002046BDE8104000F0F5BC000010484FF432
:101720007051420706D0C01D0D4920F00700411A34
:10173000C1F570510B4A00230144C2E90003083986
:10174000103A21F0070111604B600B600B1AC0E9E1
:10175000001393604FF000405360D060704700006A
:10176000E4040020BC000020074E4FF08054074DD9
:10177000FFF756FF30680128FAD92C60BFF34F8F6E
:10178000BFF36F8FF4E70000D801002004ED00E004
:101790002DE9F047DDE909840E461746824691009F
:1017A0009946089DA522206BFEF74FFE6FF00301BE
:1017B000206B01EB8701084420F00707780705D06C
:1017C00040F22B3219A11EA0FEF754FD0020221872
:1017D000315C82F83410315C11B1401C1028F6D312
:1017E000002684F84360202D00D31F25E562C4E95C
:1017F0001356201D00F0F1FB04F1180000F0EDFB82
:101800002461C5F120006462A061666584F85860B7
:101810004A465146384600F003FB2060B8F1000FFD
:1018200001D0C8F80040BDE8F08700002E2E5C46CD
:1018300072656552544F535C7461736B732E630011
:101840004572726F723A25732C25640D0A000000F0
:1018500030B5114900E011460A688242FBD34B685B
:101860005C18844203D140681844486008464368C5
:101870001C18944209D1084C103C2468A24209D09B
:1018800052681A4442600A6812680260814200D0BD
:10189000086030BD0460F9E7BC00002070B500248A
:1018A00041600B4D0061914206D8D11A8269914284
:1018B00006D2011D286907E09A4203D2994201D35A
:1018C000012403E0011DE86800F08AFB204670BD9A
:1018D0009800002010B5044600F0A6FBA06B20B1D4
:1018E000002400F0DDFB204610BD0124F9E70000D4
:1018F0002DE9F34100980F460026846C2CB940F680
:10190000CE1216A11AA0FEF7B5FCA06BE16B8842BF
:1019100005D340F6CF1211A115A0FEF7ABFCA06BCA
:10192000E16B88420CD294F945503A46694620460C
:10193000FFF7B3FE0646681C05D06D1C84F84550C1
:101940003046BDE8FC81606A0028F9D004F124002B
:1019500001F0CAFA0028F3D00126F1E72E2E5C46EA
:1019600072656552544F535C71756575652E6300E1
:101970004572726F723A25732C25640D0A000000BF
:10198000F8B5054614480E46C068C068C468201DF6
:1019900000F006FBE069012817D1A0692B46411928
:1019A00032462046FFF77AFF78B100200346014611
:1019B00000902A46204601F0C9FB30B907494FF490
:1019C000027201F11800FEF755FC616A01B0204671
:1019D000BDE8F0400847000098000020B030000843
:1019E00070B586B02F4E53E00198002806DADDE985
:1019F0000301029A90470198002849DB039C606923
:101A000010B1201D00F0CCFA05A800F0A7F805469B
:101A100001980A283CD2DFE800F00505053B27388D
:101A200005053B270298A169034601442A46204642
:101A3000FFF734FF00282BD0616A20468847E06911
:101A4000012825D1002000900298A16900234218A6
:101A50001946204601F07AFBD0B940F2213212A19A
:101A600017A0FEF707FC13E00298A06128B94FF415
:101A70004E720DA112A0FEF7FDFBA0692B46411985
:101A80001A462046FFF70AFF02E0204600F03AFB24
:101A900000231A4601A9306800F08AFE0028A3D16D
:101AA00006B070BD980000202E2E5C46726565520F
:101AB000544F535C74696D6572732E6300000000AF
:101AC0004572726F723A25732C25640D0A0000006E
:101AD000F8B50D46064600F097FD684600F03EF862
:101AE0000446009810B101F04BFAF8BD1148ADB1B1
:101AF00001690968D9B10025311B2A46006800F048
:101B0000B7FB01F03DFA0028EFD10B494FF08050B0
:101B10000860BFF34F8FBFF36F8FF8BDA642EBD8BD
:101B200001F02EFA21463046FFF72AFFF8BD0125C5
:101B3000E2E700009800002004ED00E00648416B59
:101B4000096829B1416BC968C968496881627047F1
:101B50004FF0FF31FAE700005C00002070B5054649
:101B600001F0EEF8064E0446B068844203D200F05D
:101B700009F8012000E0002028602046B46070BD14
:101B800098000020F8B5184E26E0C068C4680568C3
:101B9000201D00F005FA616A20468847E0690128A7
:101BA0001AD1A0692844A84206D924616060211D89
:101BB000F06800F015FA0FE000200346014600909F
:101BC0002A46204601F0C2FA30B9084940F2923262
:101BD00001F11800FEF74EFBF06801680029D4D12E
:101BE0003169C6E90310F8BD98000020B030000844
:101BF00008484068401C04D0F42207A111A0FEF759
:101C000039FB502080F31188BFF34F8FBFF36F8FE4
:101C1000FEE70000C40000202E2E5C46726565526F
:101C2000544F535C706F727461626C655C525644C1
:101C3000535C41524D5F434D335C706F72742E6341
:101C4000000000004572726F723A25732C25640DF6
:101C50000A000000084CE068016839B1002139B180
:101C60000020FFF735FFFFF7BBFEF4E70121F6E7A1
:101C7000C0680068F5E70000980000202DE9F041F9
:101C8000044600F0D1F994F9455004F1240610E01F
:101C9000A06C20B100212046FFF72AFE04E0606A14
:101CA00048B1304601F020F908B100F09FFB6D1EED
:101CB0006DB2002DECDC4FF0FF3684F8456000F08B
:101CC000EFF900F0B1F994F9445004F1100709E07C
:101CD000206948B1384601F007F908B100F086FBE9
:101CE0006D1E6DB2002DF3DC84F84460BDE8F04158
:101CF00000F0D6B92DE9F0410546002600F084FC3D
:101D0000324F386808B9FFF709FDF86805424FD12E
:101D1000002D4DD0083568070BD005F00700C0F145
:101D200008000544680704D0BF2229A132A0FEF7AD
:101D3000A1FA002D3CD07868854239D8234910316A
:101D40000846046801E0214604466068A84202D2C1
:101D500020680028F7D13868B846844228D00E6839
:101D60002068086060680836401B10280ED9671983
:101D7000780704D0EC2216A11FA0FEF77BFA60685A
:101D8000401B786038466560FFF762FD6168D8F8EF
:101D900004004246401AC8F80400D8F808309842B7
:101DA00000D29060D8F80C0001430020C4E9000183
:101DB00001F0E6F8700705D04FF4967204A10EA06A
:101DC000FEF758FA3046BDE8F0810000AC00002074
:101DD0002E2E5C4672656552544F535C706F727460
:101DE00061626C655C4D656D4D616E675C686561D7
:101DF000705F342E630000004572726F723A257373
:101E00002C25640D0A0000000449086818B1086810
:101E1000026D521C02650868704700005C000020DB
:101E200010B5031F4FF080741C601B1F21F00101CF
:101E30001960191F024B0B60143940380A6010BD3D
:101E4000F11B00081CB500F0EFF81A490220CDE99B
:101E500000010023322218A11A4800F037FF15496B
:101E60000320091DCDE900010023322216A11948E3
:101E700000F02CFF0F4904200831CDE900010023B8
:101E8000322215A1174800F021FF0A4905200C3124
:101E9000CDE900010023322213A1164800F016FFFD
:101EA00004480C38806800F03BFABDE81C4000F0A4
:101EB000F7B800000C0000206164635F7461736B0D
:101EC00000000000F91200086C65645F7461736BB8
:101ED00000000000091400086573635F7461736B90
:101EE00000000000AF1300086B65795F7461736BCD
:101EF00000000000D913000870B5054686B0012126
:101F00000820FEF795FF01218804FEF785FF4FF4B6
:101F10008060ADF8100003248DF8124018201E4E8A
:101F20008DF8130004A93046FEF760FEF014ADF8FA
:101F3000100004208DF8130004A93046FEF756FE69
:101F400027208DF814008DF815408DF816400120DB
:101F50008DF8170005A8FEF70DFF0020ADF804006E
:101F6000ADF80600ADF80800ADF80C000C200B4CE5
:101F7000ADF80A00009569462046FFF761F9012295
:101F800040F225512046FFF742F901212046FFF794
:101F900015F906B070BD000000080140004800407F
:101FA000D0E9013201699A60D0E901235A604A6898
:101FB000824201D182684A60002202610868401EA4
:101FC0000860704700F108014FF0FF32C0E90112CC
:101FD000C16001610021016070470021016170470B
:101FE00030B50C68621C02D000F1080202E0026900
:101FF00004E01A4653681D68A542FAD953684B603D
:1020000099608A60516008610168491C016030BDB7
:1020100042684A6093688B60936859609160086178
:102020000168491C01607047502080F31188BFF39C
:102030004F8FBFF36F8F09494868401C48600128E3
:102040000AD10748006810F0FF0F05D04FF4BD72A9
:1020500004A10FA0FEF70EB970470000C4000020D5
:1020600004ED00E02E2E5C4672656552544F535CC1
:10207000706F727461626C655C525644535C41527D
:102080004D5F434D335C706F72742E63000000002F
:102090004572726F723A25732C25640D0A00000098
:1020A00010B5084C606828B940F2811206A111A051
:1020B000FEF7E0F86068401E606001D180F311888F
:1020C00010BD0000C40000202E2E5C4672656552D3
:1020D000544F535C706F727461626C655C5256440D
:1020E000535C41524D5F434D335C706F72742E638D
:1020F000000000004572726F723A25732C25640D42
:102100000A00000070B500282AD0164DA0F108047E
:102110006068E968084205D14FF4A07212A11CA0C2
:10212000FEF7A8F8206828B140F241120EA118A0CD
:10213000FEF7A0F86068E968084211D02268002A1A
:102140000ED18843606000F05FFA606869680844F7
:1021500068602046FFF77CFBBDE8704000F010BFD0
:1021600070BD0000AC0000202E2E5C4672656552EA
:10217000544F535C706F727461626C655C4D656D39
:102180004D616E675C686561705F342E63000000AE
:102190004572726F723A25732C25640D0A00000097
:1021A00006484FF47A710068B0FBF1F14FF0E0207F
:1021B000491E416107210161704700002400002091
:1021C00010B5FEF731F8104C10280CD300F1E020C8
:1021D00090F8F0032178884205D24FF42A720BA1BF
:1021E00015A0FEF747F818480068A16800F4E06001
:1021F000884207D9BDE810404FF42E7203A10EA00B
:10220000FEF738B810BD0000C40000202E2E5C463A
:1022100072656552544F535C706F727461626C6585
:102220005C525644535C41524D5F434D335C706F7A
:1022300072742E63000000004572726F723A25734B
:102240002C25640D0A0000000CED00E010B5074BD2
:10225000002253F832401CB1521C082AF9D310BD99
:1022600043F8321003EBC201486010BD9801002012
:1022700070B515460E460446FFF7D6FE94F9441095
:102280000020491C01D184F8440094F94510491CF0
:1022900001D184F84500FFF703FFA06B28B92A4657
:1022A000314604F1240000F0D1F82046BDE870402A
:1022B000FFF7E4BC10B5040012D00E49096B29B138
:1022C00040F2CF420CA111A0FDF7D4FF00F09CF921
:1022D00000212046FFF7DCF800F052FE002807D16D
:1022E0000E494FF080500860BFF34F8FBFF36F8FE0
:1022F00010BD00005C0000202E2E5C467265655209
:10230000544F535C7461736B732E63004572726F2C
:10231000723A25732C25640D0A00000004ED00E0DC
:1023200070B50446FFF780FE234D04B92C68201DCC
:10233000FFF736FE58B9E06A204A00EB800152F8F8
:10234000211021B901218140286988432861A06AB0
:1023500018B104F11800FFF723FE686A401C686298
:102360002868844207D1211D1548FFF751FE68688F
:10237000401C686007E0A868401EA8602046FFF780
:10238000C2F9FFF7DBFBFFF78BFE6869002812D06C
:10239000286884420FD1286B28B140F2654209A118
:1023A0000DA0FDF767FF10494FF080500860BFF3A4
:1023B0004F8FBFF36F8F70BD5C000020D8010020ED
:1023C000940400202E2E5C4672656552544F535C77
:1023D0007461736B732E63004572726F723A25736A
:1023E0002C25640D0A00000004ED00E001490120E5
:1023F000C86170475C00002070B50D46040005D12F
:1024000040F6063207A10CA0FDF734FF0E48016824
:1024100020461831FFF7E4FD2846BDE87040012151
:10242000FFF736B82E2E5C4672656552544F535CEA
:102430007461736B732E63004572726F723A257309
:102440002C25640D0A0000005C00002070B51446C5
:102450000E46050005D140F6313209A10DA0FDF769
:1024600009FF1048016828461831FFF7D1FD0CB16B
:102470004FF0FF3621463046BDE87040FFF708B800
:102480002E2E5C4672656552544F535C7461736BBB
:10249000732E63004572726F723A25732C25640D9A
:1024A0000A0000005C00002070B5040039D01D4D0A
:1024B000E06A2968C96A884233D2A069002804DB2F
:1024C0002868C06AC0F12000A061E06A164E00EBE7
:1024D0008000616906EB800081421FD1201DFFF75B
:1024E0005FFD012150B9E06A00EB800256F822201E
:1024F00022B92A6901FA00F082432A612868C06A79
:10250000E0622A6981401143296100EB800006EBFB
:102510008000211DBDE87040FFF77ABD2868C06AC1
:10252000E06270BD5C000020D801002010B50400FE
:1025300005D140F6C13205A109A0FDF79BFE0C486C
:10254000016A2160C068606010BD00002E2E5C46EC
:1025500072656552544F535C7461736B732E6300E4
:102560004572726F723A25732C25640D0A000000C3
:102570005C0000201CB517480024CDE9004023462C
:10258000822215A1164800F0A1FB012803D100F01A
:10259000A3FD01280AD0401C1BD102B040F2847276
:1025A000BDE810400FA114A0FDF764BE502080F3D9
:1025B0001188BFF34F8FBFF36F8F06484FF0FF3185
:1025C0002C38816201214161C460BDE81C4000F0EB
:1025D00061B81CBD8800002049444C450000000043
:1025E000691700082E2E5C4672656552544F535C85
:1025F0007461736B732E63004572726F723A257348
:102600002C25640D0A0000000248016B491C01637F
:10261000704700005C00002070B5134D286B10B1AE
:102620000120E86170BD0020E86128690F4EB0FA12
:1026300080F0C0F11F0000EB800456F8240028B998
:1026400040F6F6220AA10FA0FDF714FE06EB840067
:1026500000F10802416849684160914201D149682E
:102660004160C868286070BD5C000020D80100206F
:102670002E2E5C4672656552544F535C7461736BC9
:10268000732E63004572726F723A25732C25640DA8
:102690000A0000001CB51A4908780190FF20087054
:1026A00008788DF800009DF80000164A00F05000F0
:1026B00010700720906007E09068401E90609DF8C1
:1026C000000040008DF800009DF800000006F3D4E3
:1026D000107A000200F4E0609060019808700A48E7
:1026E000016841F470010160016841F070410160CE
:1026F000FFF756FD00205060FDF760FD00201CBD77
:1027000000E400E0C400002020ED00E010B55020FF
:1027100080F31188BFF34F8FBFF36F8F00F016FB6C
:1027200018B104494FF080500860002080F31188F0
:1027300010BD000004ED00E02DE9F04117460E4603
:10274000050005D14FF4C47210A115A0FDF792FD4C
:10275000BEB105FB06F05430FFF7CCFA04000ED0F2
:1027600004F154007EB12060C4E90F5620460121D7
:1027700000F0E0F884F8507000212046A164BDE824
:10278000F0810020E7E72460EEE700002E2E5C4693
:1027900072656552544F535C71756575652E6300A3
:1027A0004572726F723A25732C25640D0A00000081
:1027B0002DE9FF4F83B09B468A4604004FF0000688
:1027C00005D140F2DC4251A155A0FDF753FDBAF10D
:1027D000000F07D1206C28B140F2DD424BA150A080
:1027E000FDF748FD00F09EFA38B9059828B14FF47E
:1027F0009C6246A14AA0FDF73DFD4FF000094FF055
:102800008057DFF82C81FFF70FFCA56B45B35146CD
:102810002046E668FEF72EFFBBF1000F13D0E660FE
:10282000606A50B104F1240000F05EFB28B1C8F8E2
:102830000070BFF34F8FBFF36F8FFFF731FC0120A4
:1028400007B0BDE8F08F6D1EA563206810B9FFF7D3
:10285000DBFA606020690028EFD004F11000E3E7A4
:10286000059808B11EB106E0FFF71AFC27E068469C
:10287000FFF75CFE0126FFF713FCFFF7C5FEFFF72D
:10288000D3FB94F94400401C01D184F8449094F99E
:102890004500401C01D184F84590FFF701FC05A9D3
:1028A000684600F0CFF9002820460AD0FFF7E6F985
:1028B00000F066FB2046FFF70DF80028A3D00020AB
:1028C000BEE7FFF707F8D8B1206830B9FFF7ACFBD7
:1028D0006068FFF7E9FDFFF7E3FB04F124000599C9
:1028E000FFF78AFD2046FFF7C9F900F049FB0028F1
:1028F00089D1C8F80070BFF34F8FBFF36F8F82E7A5
:102900002046FFF7BBF900F03BFB7CE72E2E5C4630
:1029100072656552544F535C71756575652E630021
:102920004572726F723A25732C25640D0A000000FF
:1029300004ED00E070B50D46040005D140F21B1215
:102940001CA121A0FDF796FCFFF76EFBD4E90F2038
:10295000216802FB001161600021A1632168A16070
:102960000A46D4E90F01401E00FB0121E160214627
:102970004FF0FF3001F8440F487004F110004DB1E2
:10298000FFF720FB04F12400FFF71CFBFFF788FB97
:10299000012070BD21690029F8D000F0A5FA0028B7
:1029A000F4D00D494FF080500860BFF34F8FBFF354
:1029B0006F8FEBE72E2E5C4672656552544F535C69
:1029C00071756575652E63004572726F723A257375
:1029D0002C25640D0A00000004ED00E02DE9FF4FF6
:1029E00083B099468B4604004FF0000605D140F2B3
:1029F000D92252A156A0FDF73DFCBBF1000F07D133
:102A0000206C28B140F2DA224CA151A0FDF732FC33
:102A1000B9F1020F08D1E06B012805D040F2DB22AA
:102A200046A14BA0FDF726FC00F07CF938B90598CB
:102A300028B140F2DE2241A145A0FDF71BFC4FF07A
:102A4000000A4FF08057DFF81881FFF7EDFAA06B0E
:102A5000E16B884206D3B9F1020F03D0059800B3A9
:102A600016B325E04A4659462046FEF716FEA16CED
:102A700021B149462046FEF73BFF05E0616A19B1E6
:102A800004F1240000F030FA28B1C8F80070BFF358
:102A90004F8FBFF36F8FFFF703FB012007B0BDE837
:102AA000F08FFFF7FDFA21E06846FFF73FFD0126B2
:102AB000FFF7F6FAFFF7A8FDFFF7B6FA94F944001E
:102AC000401C01D184F844A094F94500401C01D178
:102AD00084F845A0FFF7E4FA05A9684600F0B2F8CB
:102AE00030B12046FFF7CAF800F04AFA0020D5E7D7
:102AF000FFF79AFAA06BE16B884201D1012500E053
:102B00000025FFF7CDFA95B104F110000599FFF704
:102B100073FC2046FFF7B2F800F032FA002894D197
:102B2000C8F80070BFF34F8FBFF36F8F8DE720465B
:102B3000FFF7A4F800F024FA87E700002E2E5C4689
:102B400072656552544F535C71756575652E6300EF
:102B50004572726F723A25732C25640D0A000000CD
:102B600004ED00E02DE9F04798461546894604003B
:102B700005D140F29F322AA12EA0FDF77BFBB9F1CF
:102B8000000F07D1206C28B14FF4687224A129A04E
:102B9000FDF770FBB8F1020F08D1E06B012805D0FA
:102BA00040F2A1321EA123A0FDF764FBFFF708FB52
:102BB0005020EFF3118780F31188BFF34F8FBFF3DD
:102BC0006F8FA06BE16B884207D3B8F1020F04D07E
:102BD000002087F31188BDE8F08794F945604246EC
:102BE00049462046FEF759FD701C04D0761C84F837
:102BF00045600120EDE7A06C012620B1414620464A
:102C0000FEF776FE06E0606A0028F2D004F12400A8
:102C100000F06AF90028ECD0002DEAD02E60E8E739
:102C20002E2E5C4672656552544F535C7175657506
:102C3000652E63004572726F723A25732C25640D00
:102C40000A00000070B50D46040005D140F6CB32F5
:102C500014A119A0FDF70EFB2DB940F6CC3211A13D
:102C600015A0FDF707FBFFF7DFF9174AD0682968C1
:102C70004B1C0FD02368126A934202D062688242D2
:102C80000AD96268801A884206D2081A286020464B
:102C9000FFF74CFC002400E00124FFF701FA204676
:102CA00070BD00002E2E5C4672656552544F535C19
:102CB0007461736B732E63004572726F723A257381
:102CC0002C25640D0A0000005C0000202DE9FF5F48
:102CD0008346DDE90E87994616468A469000FFF73F
:102CE00009F805001AD05C20FFF704F8040012D0A0
:102CF00025630021CDE90241CDE900874B463246EC
:102D000051465846FEF744FD2046FEF7F9FB0120E8
:102D100004B0BDE8F09F2846FFF7F4F94FF0FF300C
:102D2000F6E700000548416919B1006B18B10020B1
:102D30007047012070470220704700005C000020AF
:102D40000148C068704700005C0000202DE9F04198
:102D50002D4F0026386B40B1B869401CB861F86946
:102D600000B101263046BDE8F081FD686D1CFD60B4
:102D700011D1786B006828B140F6D91223A128A0A0
:102D8000FDF778FA786BB96B7963B863386A401CE1
:102D90003862FEF7D3FEB86ADFF89480854209D323
:102DA000786B006880B1786BC068C46860688542E1
:102DB0000DD2B8623868C06A00EB800158F8210073
:102DC0000128CCD90126CAE74FF0FF30F1E7201DDA
:102DD000FFF7E6F8A06A18B104F11800FFF7E0F871
:102DE000E06A01213A6981401143396100EB8001B9
:102DF00008EB8100211DFFF70BF9E06A3968C96A09
:102E00008842CDD30126CBE75C0000202E2E5C4605
:102E100072656552544F535C7461736B732E63001B
:102E20004572726F723A25732C25640D0A000000FA
:102E3000D801002070B504004FF000063CD01F4DB3
:102E40002868844205D040F6C7621DA121A0FDF785
:102E500011FA206D28B940F6C96219A11DA0FDF72D
:102E600009FA206D401E2065E26CE16A914223D090
:102E700010BB201DFFF794F81A49012250B9E06AEF
:102E800000EB800351F8233023B92B6902FA00F0DC
:102E900083432B61E06CE062C0F12000A061E06A36
:102EA0002B6982401A432A6100EB800001EB80000D
:102EB000211DFFF7ADF80126304670BD5C000020F3
:102EC0002E2E5C4672656552544F535C7461736B71
:102ED000732E63004572726F723A25732C25640D50
:102EE0000A000000D80100202DE9F041C068C46844
:102EF0002CB940F6613216A11AA0FDF7BBF904F116
:102F000018000746FFF74CF81A4D286B012660B1F0
:102F100039461948FFF77CF8E06A2968C96A88428F
:102F200013D90120EE61BDE8F081201DFFF738F8CC
:102F3000E06A2A6906FA00F1114329610F4900EBA2
:102F4000800001EB8000211DE4E70020EBE700009A
:102F50002E2E5C4672656552544F535C7461736BE0
:102F6000732E63004572726F723A25732C25640DBF
:102F70000A0000005C00002080040020D80100202E
:102F80002DE9F0472B4D00242746286B28B94FF434
:102F9000FD6229A12DA0FDF76DF9FFF745F8286B1B
:102FA000401E2863286BE8BBA8682C490126C8B3DB
:102FB000A1F52A798846D8F80010E9B1D8F80C00B4
:102FC000C46804F11800FEF7EBFF201DFEF7E8FFD0
:102FD000E06A2A6906FA00F11143296100EB8001D9
:102FE00009EB8100211DFFF713F8E06A2968C96A1F
:102FF0008842E0D3EE61DEE70CB1FEF79FFDAC69DD
:103000003CB1FFF7A3FE00B1EE61641EF9D10020D0
:10301000A861E86930B11249012738070860BFF399
:103020004F8F00E001E0BFF36F8FFFF739F83846AC
:10303000BDE8F0875C0000202E2E5C46726565526C
:10304000544F535C7461736B732E63004572726FDF
:10305000723A25732C25640D0A00000080040020BC
:1030600004ED00E02DE9F0470746994616460D4667
:103070002C20DDF820A0FEF73DFE040014D0B84659
:103080004F46D1462DB94FF4C67209A10EA0FDF7E7
:10309000F1F8FEF79DFA04F11801C4F8008081E808
:1030A000E002201DFEF799FF2046BDE8F0870000F2
:1030B0002E2E5C4672656552544F535C74696D6583
:1030C00072732E63000000004572726F723A2573AE
:1030D0002C25640D0A0000001CB50024FEF778FAC8
:1030E0000C48006868B10B491F20091DCDE900019B
:1030F00000234FF4827208A10948FFF7E7FD04009E
:1031000005D140F2331207A10CA0FDF7B3F8204619
:103110001CBD000098000020546D7220537663009F
:10312000551C00082E2E5C4672656552544F535C48
:1031300074696D6572732E63000000004572726FD2
:10314000723A25732C25640D0A0000002DE9FF4713
:10315000DDF830A0994690460D4606004FF0000776
:1031600005D14FF4D37212A117A0FDF783F81A4CC2
:10317000206880B1CDE900580296062D11DAFFF7DC
:10318000D1FD02284FF0000309D0002269462068D3
:10319000FFF724FC074604B03846BDE8F0875246E6
:1031A000F4E700234A466946FFF7DCFCF2E700003B
:1031B0002E2E5C4672656552544F535C74696D6582
:1031C00072732E63000000004572726F723A2573AD
:1031D0002C25640D0A0000009800002021F0004218
:1031E000A2F16052B2F5801F01F0004328BFD2F176
:1031F0007F6C0BD95FEA001C43EAC20242EB5070BD
:1032000018BF704728BF20F001007047B2F5801F3B
:10321000BCBF184670474FEA410C1CF5001F02D294
:10322000084600F077BA70B500F020FA0000008977
:10323000FFF7F6BF4FF00040A0F580007047000098
:103240002DE9C04130B4DFF8A0C23CEA111418BF28
:103250003CEA131400F0EC8081EA03051CEA111427
:1032600044EAD57418BF1CEA131500F0C780A4EB1C
:1032700005044FF0004545EAC12145EAC32341EA70
:10328000505143EA525304F17F74994204F50034DB
:103290004FEAC0204FEAC22208BF904200F09C8053
:1032A0004FEA13650FF24016765D4FEA134506FBB1
:1032B00005F7C7F1807706FB07F74FEAD737A7FB7B
:1032C00003687642C8F58038A7FB06CE38BFA8F160
:1032D000010807FB08E64FF0000EA6FB028CE6FB98
:1032E00003CEDCF1000CCEF1004E38BFAEF1010E82
:1032F000A6FB0C584FF000074FF00005E6FB0E87C9
:10330000A1FB08C6A0FB07CE16EB0E0645F1000593
:10331000E1FB076515F1E04E7EBFA4F580345FEA5E
:1033200046066D4116F1800745F100054FEA172763
:103330004FEA066647EA0567A6F1DE46B6F1805F0A
:103340004FEA15251FD9384624F0010C05EBC4714E
:10335000BCF1FE6F01EB0C1102D8F0BCBDE800819E
:1033600024425CBF01F5801E9EEAC47F02D4F0BCFB
:10337000BDE80081244238D4F0BCA1F1C041BDE8D1
:10338000004100F0C1B94FEAD22242EA43524FEA6B
:10339000D323A7FB02864FEAD02040EA415007FB27
:1033A00003661EEA0E0F4FEAD12105FB026658BFE5
:1033B000A6EB0056B6EB00564FEA520E4EEAC37E1D
:1033C00018EB0E0E56EB530EBDD518EB02085E41FE
:1033D0007F1C55F10005B6E74FF480154FF000074C
:1033E0004FF000064FF00008ADE7F0BC4FF00000D2
:1033F00001F1C04101F00041BDE8008111EA0C1F5C
:103400000CEA131500D00CE013EA0C1F00F0258025
:103410004FF00000F0BC81EA030101F00041BDE87B
:103420000081F0BCBDE8004181EA030100F06CB905
:10343000F0BCBDE8004170B500F018F9097EFC3E13
:1034400000F007B881EA03014FF0000001F00041ED
:10345000704781EA030100F057B9F0BCBDE80041B4
:103460004FF0000021497047FFFDFBF9F7F5F4F23A
:10347000F0EEEDEBE9E8E6E4E3E1E0DEDDDBDAD80F
:10348000D7D5D4D3D1D0CFCDCCCBCAC8C7C6C5C46D
:10349000C2C1C0BFBEBDBCBBBAB9B8B7B6B5B4B384
:1034A000B2B1B0AFAEADACABAAA9A8A8A7A6A5A46F
:1034B000A3A3A2A1A09F9F9E9D9C9C9B9A99999833
:1034C0009797969595949393929191908F8F8E8ED6
:1034D0008D8C8C8B8B8A8989888887878685858463
:1034E00084838382828181800000FF070000F87F4F
:1034F000B0FA80F310FA03F10AD0C3F11D0303F50B
:1035000080634FEA41504FEA035202EBD1217047EA
:103510004FF0000070470000DFF848C170B51CEAAA
:10352000111E1EBF1CEA13159EEA0C0F95EA0C0F24
:1035300000F06F8081EA030423EA4C134EEAD47E44
:1035400021EA4C1141F4801143F48013AE44A1FBF5
:10355000024CA0FB0365AEF17F7E361955EB0C05DE
:10356000A1FB034C4CF10003A0FB021C16EB0C0664
:10357000654153F10003094218BF46F0010613F4F8
:10358000007F0BD14FEA03314FEA0530340341EAA3
:10359000155140EA16506FF003020AE04FEAC321CA
:1035A0004FEAC520F40241EA555140EA56506FF007
:1035B000020202EB2E4201EB025585EACE710AD0DF
:1035C0005FEA440C18BF24F0004450F1000041F1C0
:1035D000000120EAD47040F2FE7C624500D270BD4A
:1035E000A84214BF4FF080444FF04044002E08BF63
:1035F0000024BEF1806FA8BFA1F1C041BDE87040BA
:1036000080F282804FF0000001F1C04101F00041E2
:1036100070479EEA0C0F0CEA131518BF95EA0C0FC1
:1036200006D04FF0000081EA030E0EF0004170BD9D
:1036300000F01CF88900013E00F007B800F009B85E
:103640004FEA430C5FEA5C5C08D081EA030100F0BA
:103650005BB84FEA410C5FEA5C5CF6D14FF00000CA
:10366000014970470000FF070000F87F0EF1020ECD
:103670002EF0030E5EF8046B364205D4012A43EBAC
:10368000030515F5001F12D8012841EB010C1CF5AC
:10369000001F0CD80ED14FEAD17C15F5001F0CEBA2
:1036A0004C0C0CF1020C08BF4CEBD37C04E04FF047
:1036B000080C01E04FEAD37C0CEB4C0526FA05F62A
:1036C00006F00706B6F1040C06D20EEB860CBDE838
:1036D00070404CF0010C6047DFE80CF0090B02026F
:1036E0004FF000414FF00000A1F5002170BD1946D8
:1036F0001046012851EB010418BFD4F5001484BF13
:10370000002001F0004170BD0808A0F500114FEA4B
:1037100031017047FF2141EAD050C00570470000D9
:103720004037000800000020D000000028010008F9
:1037300010380008D000002078460000440100083E
:103740000000000002000000000000000000000077
:103750000000000000000000000000000000000069
:103760000000000000A24A04000000000000000069
:103770000102030406070809000000000100000020
:103780000000000000000000020406080000000025
:1037900001020304010203040607080900000000F7
:1037A0000000000000000000000000000000000019
:1037B0000000000000000000000000000000000009
:1037C00000000000000000000000000000000000F9
:1037D00000000000000000000000000000000000E9
:1037E00000000000000000000000000000000000D9
:1037F00000000000000000000000000000000000C9
:103800000000000000000000AAAAAAAA0000000010
:0400000508000231BC
:00000001FF
